{
  "_format": "hh-sol-artifact-1",
  "contractName": "Transfer",
  "sourceName": "contracts/Transfer.sol",
  "abi": [
    {
      "inputs": [
        {
          "internalType": "uint256",
          "name": "_id",
          "type": "uint256"
        },
        {
          "internalType": "address payable",
          "name": "_recipient",
          "type": "address"
        }
      ],
      "name": "buyACar",
      "outputs": [],
      "stateMutability": "payable",
      "type": "function"
    },
    {
      "inputs": [
        {
          "internalType": "uint256",
          "name": "",
          "type": "uint256"
        }
      ],
      "name": "cars",
      "outputs": [
        {
          "internalType": "uint256",
          "name": "price",
          "type": "uint256"
        },
        {
          "internalType": "address",
          "name": "owner",
          "type": "address"
        },
        {
          "internalType": "string",
          "name": "description",
          "type": "string"
        },
        {
          "internalType": "bool",
          "name": "status",
          "type": "bool"
        }
      ],
      "stateMutability": "view",
      "type": "function"
    },
    {
      "inputs": [
        {
          "internalType": "uint256",
          "name": "_id",
          "type": "uint256"
        },
        {
          "internalType": "address payable",
          "name": "_recipient",
          "type": "address"
        }
      ],
      "name": "sellACar",
      "outputs": [],
      "stateMutability": "payable",
      "type": "function"
    },
    {
      "inputs": [],
      "name": "setCar",
      "outputs": [],
      "stateMutability": "nonpayable",
      "type": "function"
    },
    {
      "inputs": [],
      "name": "viewAllCars",
      "outputs": [
        {
          "components": [
            {
              "internalType": "uint256",
              "name": "price",
              "type": "uint256"
            },
            {
              "internalType": "address",
              "name": "owner",
              "type": "address"
            },
            {
              "internalType": "string",
              "name": "description",
              "type": "string"
            },
            {
              "internalType": "bool",
              "name": "status",
              "type": "bool"
            }
          ],
          "internalType": "struct Transfer.Car[]",
          "name": "",
          "type": "tuple[]"
        }
      ],
      "stateMutability": "view",
      "type": "function"
    }
  ],
  "bytecode": "0x608060405234801561001057600080fd5b50611008806100206000396000f3fe60806040526004361061004a5760003560e01c80631429813c1461004f578063168f83451461006b5780636cb1dbdd1461008257806396228d14146100ad578063f7746e36146100c9575b600080fd5b6100696004803603810190610064919061093d565b610109565b005b34801561007757600080fd5b506100806102d1565b005b34801561008e57600080fd5b5061009761043f565b6040516100a49190610b86565b60405180910390f35b6100c760048036038101906100c2919061093d565b6105ab565b005b3480156100d557600080fd5b506100f060048036038101906100eb9190610ba8565b61070c565b6040516101009493929190610c4c565b60405180910390f35b6000806001846101199190610cc7565b8154811061012a57610129610cfb565b5b90600052602060002090600402019050600015158160030160009054906101000a900460ff16151514610192576040517f08c379a000000000000000000000000000000000000000000000000000000000815260040161018990610d76565b60405180910390fd5b3373ffffffffffffffffffffffffffffffffffffffff168160010160009054906101000a900473ffffffffffffffffffffffffffffffffffffffff1673ffffffffffffffffffffffffffffffffffffffff161415610225576040517f08c379a000000000000000000000000000000000000000000000000000000000815260040161021c90610de2565b60405180910390fd5b338160010160006101000a81548173ffffffffffffffffffffffffffffffffffffffff021916908373ffffffffffffffffffffffffffffffffffffffff16021790555060018160030160006101000a81548160ff0219169083151502179055508173ffffffffffffffffffffffffffffffffffffffff166108fc349081150290604051600060405180830381858888f193505050501580156102cb573d6000803e3d6000fd5b50505050565b60006040518060800160405280670de0b6b3a7640000815260200173ab8483f64d9c6d1ecf9b849ae677dd3315835cb273ffffffffffffffffffffffffffffffffffffffff1681526020016040518060400160405280600881526020017f676f6f6420636172000000000000000000000000000000000000000000000000815250815260200160001515815250905060005b600a81101561043b5760008290806001815401808255809150506001900390600052602060002090600402016000909190919091506000820151816000015560208201518160010160006101000a81548173ffffffffffffffffffffffffffffffffffffffff021916908373ffffffffffffffffffffffffffffffffffffffff1602179055506040820151816002019080519060200190610405929190610801565b5060608201518160030160006101000a81548160ff0219169083151502179055505050808061043390610e02565b915050610363565b5050565b60606000805480602002602001604051908101604052809291908181526020016000905b828210156105a25783829060005260206000209060040201604051806080016040529081600082015481526020016001820160009054906101000a900473ffffffffffffffffffffffffffffffffffffffff1673ffffffffffffffffffffffffffffffffffffffff1673ffffffffffffffffffffffffffffffffffffffff1681526020016002820180546104f690610e7a565b80601f016020809104026020016040519081016040528092919081815260200182805461052290610e7a565b801561056f5780601f106105445761010080835404028352916020019161056f565b820191906000526020600020905b81548152906001019060200180831161055257829003601f168201915b505050505081526020016003820160009054906101000a900460ff16151515158152505081526020019060010190610463565b50505050905090565b6000806001846105bb9190610cc7565b815481106105cc576105cb610cfb565b5b90600052602060002090600402019050600115158160030160009054906101000a900460ff16151514610634576040517f08c379a000000000000000000000000000000000000000000000000000000000815260040161062b90610ef8565b60405180910390fd5b73ab8483f64d9c6d1ecf9b849ae677dd3315835cb28160010160006101000a81548173ffffffffffffffffffffffffffffffffffffffff021916908373ffffffffffffffffffffffffffffffffffffffff16021790555060008160030160006101000a81548160ff0219169083151502179055508173ffffffffffffffffffffffffffffffffffffffff166108fc6064606e346106d19190610f18565b6106db9190610fa1565b9081150290604051600060405180830381858888f19350505050158015610706573d6000803e3d6000fd5b50505050565b6000818154811061071c57600080fd5b90600052602060002090600402016000915090508060000154908060010160009054906101000a900473ffffffffffffffffffffffffffffffffffffffff169080600201805461076b90610e7a565b80601f016020809104026020016040519081016040528092919081815260200182805461079790610e7a565b80156107e45780601f106107b9576101008083540402835291602001916107e4565b820191906000526020600020905b8154815290600101906020018083116107c757829003601f168201915b5050505050908060030160009054906101000a900460ff16905084565b82805461080d90610e7a565b90600052602060002090601f01602090048101928261082f5760008555610876565b82601f1061084857805160ff1916838001178555610876565b82800160010185558215610876579182015b8281111561087557825182559160200191906001019061085a565b5b5090506108839190610887565b5090565b5b808211156108a0576000816000905550600101610888565b5090565b600080fd5b6000819050919050565b6108bc816108a9565b81146108c757600080fd5b50565b6000813590506108d9816108b3565b92915050565b600073ffffffffffffffffffffffffffffffffffffffff82169050919050565b600061090a826108df565b9050919050565b61091a816108ff565b811461092557600080fd5b50565b60008135905061093781610911565b92915050565b60008060408385031215610954576109536108a4565b5b6000610962858286016108ca565b925050602061097385828601610928565b9150509250929050565b600081519050919050565b600082825260208201905092915050565b6000819050602082019050919050565b6109b2816108a9565b82525050565b60006109c3826108df565b9050919050565b6109d3816109b8565b82525050565b600081519050919050565b600082825260208201905092915050565b60005b83811015610a135780820151818401526020810190506109f8565b83811115610a22576000848401525b50505050565b6000601f19601f8301169050919050565b6000610a44826109d9565b610a4e81856109e4565b9350610a5e8185602086016109f5565b610a6781610a28565b840191505092915050565b60008115159050919050565b610a8781610a72565b82525050565b6000608083016000830151610aa560008601826109a9565b506020830151610ab860208601826109ca565b5060408301518482036040860152610ad08282610a39565b9150506060830151610ae56060860182610a7e565b508091505092915050565b6000610afc8383610a8d565b905092915050565b6000602082019050919050565b6000610b1c8261097d565b610b268185610988565b935083602082028501610b3885610999565b8060005b85811015610b745784840389528151610b558582610af0565b9450610b6083610b04565b925060208a01995050600181019050610b3c565b50829750879550505050505092915050565b60006020820190508181036000830152610ba08184610b11565b905092915050565b600060208284031215610bbe57610bbd6108a4565b5b6000610bcc848285016108ca565b91505092915050565b610bde816108a9565b82525050565b610bed816109b8565b82525050565b600082825260208201905092915050565b6000610c0f826109d9565b610c198185610bf3565b9350610c298185602086016109f5565b610c3281610a28565b840191505092915050565b610c4681610a72565b82525050565b6000608082019050610c616000830187610bd5565b610c6e6020830186610be4565b8181036040830152610c808185610c04565b9050610c8f6060830184610c3d565b95945050505050565b7f4e487b7100000000000000000000000000000000000000000000000000000000600052601160045260246000fd5b6000610cd2826108a9565b9150610cdd836108a9565b925082821015610cf057610cef610c98565b5b828203905092915050565b7f4e487b7100000000000000000000000000000000000000000000000000000000600052603260045260246000fd5b7f54686973206974656d20686173206265656e2070757263686173656400000000600082015250565b6000610d60601c83610bf3565b9150610d6b82610d2a565b602082019050919050565b60006020820190508181036000830152610d8f81610d53565b9050919050565b7f596f75277265206e6f742062757920796f7572206974656d2100000000000000600082015250565b6000610dcc601983610bf3565b9150610dd782610d96565b602082019050919050565b60006020820190508181036000830152610dfb81610dbf565b9050919050565b6000610e0d826108a9565b91507fffffffffffffffffffffffffffffffffffffffffffffffffffffffffffffffff821415610e4057610e3f610c98565b5b600182019050919050565b7f4e487b7100000000000000000000000000000000000000000000000000000000600052602260045260246000fd5b60006002820490506001821680610e9257607f821691505b60208210811415610ea657610ea5610e4b565b5b50919050565b7f54686973206974656d20646f6e27742073656c6c20627920796f750000000000600082015250565b6000610ee2601b83610bf3565b9150610eed82610eac565b602082019050919050565b60006020820190508181036000830152610f1181610ed5565b9050919050565b6000610f23826108a9565b9150610f2e836108a9565b9250817fffffffffffffffffffffffffffffffffffffffffffffffffffffffffffffffff0483118215151615610f6757610f66610c98565b5b828202905092915050565b7f4e487b7100000000000000000000000000000000000000000000000000000000600052601260045260246000fd5b6000610fac826108a9565b9150610fb7836108a9565b925082610fc757610fc6610f72565b5b82820490509291505056fea2646970667358221220ddf8d03926d32c31326b4263f5e694320369cbaedae23dc2cac4ac73713d141064736f6c63430008090033",
  "linkReferences": {},
  "deployedLinkReferences": {}
}